{
  "_format": "hh-sol-artifact-1",
  "contractName": "contractStorage",
  "sourceName": "contracts/contractStorage.sol",
  "abi": [
    {
      "inputs": [
        {
          "internalType": "string",
          "name": "insurance",
          "type": "string"
        }
      ],
      "name": "addInsurance",
      "outputs": [],
      "stateMutability": "nonpayable",
      "type": "function"
    },
    {
      "inputs": [],
      "name": "getInsurances",
      "outputs": [
        {
          "internalType": "string[]",
          "name": "",
          "type": "string[]"
        }
      ],
      "stateMutability": "view",
      "type": "function"
    },
    {
      "inputs": [],
      "name": "greet",
      "outputs": [
        {
          "internalType": "string",
          "name": "",
          "type": "string"
        }
      ],
      "stateMutability": "view",
      "type": "function"
    }
  ],
  "bytecode": "0x60806040526040518060400160405280600781526020017f616e697275646800000000000000000000000000000000000000000000000000815250600190816200004a9190620002d9565b503480156200005857600080fd5b50620003c0565b600081519050919050565b7f4e487b7100000000000000000000000000000000000000000000000000000000600052604160045260246000fd5b7f4e487b7100000000000000000000000000000000000000000000000000000000600052602260045260246000fd5b60006002820490506001821680620000e157607f821691505b602082108103620000f757620000f662000099565b5b50919050565b60008190508160005260206000209050919050565b60006020601f8301049050919050565b600082821b905092915050565b600060088302620001617fffffffffffffffffffffffffffffffffffffffffffffffffffffffffffffffff8262000122565b6200016d868362000122565b95508019841693508086168417925050509392505050565b6000819050919050565b6000819050919050565b6000620001ba620001b4620001ae8462000185565b6200018f565b62000185565b9050919050565b6000819050919050565b620001d68362000199565b620001ee620001e582620001c1565b8484546200012f565b825550505050565b600090565b62000205620001f6565b62000212818484620001cb565b505050565b5b818110156200023a576200022e600082620001fb565b60018101905062000218565b5050565b601f82111562000289576200025381620000fd565b6200025e8462000112565b810160208510156200026e578190505b620002866200027d8562000112565b83018262000217565b50505b505050565b600082821c905092915050565b6000620002ae600019846008026200028e565b1980831691505092915050565b6000620002c983836200029b565b9150826002028217905092915050565b620002e4826200005f565b67ffffffffffffffff8111156200030057620002ff6200006a565b5b6200030c8254620000c8565b620003198282856200023e565b600060209050601f8311600181146200035157600084156200033c578287015190505b620003488582620002bb565b865550620003b8565b601f1984166200036186620000fd565b60005b828110156200038b5784890151825560018201915060208501945060208101905062000364565b86831015620003ab5784890151620003a7601f8916826200029b565b8355505b6001600288020188555050505b505050505050565b61094580620003d06000396000f3fe608060405234801561001057600080fd5b50600436106100415760003560e01c80630e709ca71461004657806344648ddb14610064578063cfae321714610080575b600080fd5b61004e61009e565b60405161005b9190610407565b60405180910390f35b61007e60048036038101906100799190610572565b6101b3565b005b610088610227565b6040516100959190610605565b60405180910390f35b60606000803373ffffffffffffffffffffffffffffffffffffffff1673ffffffffffffffffffffffffffffffffffffffff168152602001908152602001600020805480602002602001604051908101604052809291908181526020016000905b828210156101aa57838290600052602060002001805461011d90610656565b80601f016020809104026020016040519081016040528092919081815260200182805461014990610656565b80156101965780601f1061016b57610100808354040283529160200191610196565b820191906000526020600020905b81548152906001019060200180831161017957829003601f168201915b5050505050815260200190600101906100fe565b50505050905090565b6000803373ffffffffffffffffffffffffffffffffffffffff1673ffffffffffffffffffffffffffffffffffffffff16815260200190815260200160002081908060018154018082558091505060019003906000526020600020016000909190919091509081610223919061083d565b5050565b6001805461023490610656565b80601f016020809104026020016040519081016040528092919081815260200182805461026090610656565b80156102ad5780601f10610282576101008083540402835291602001916102ad565b820191906000526020600020905b81548152906001019060200180831161029057829003601f168201915b505050505081565b600081519050919050565b600082825260208201905092915050565b6000819050602082019050919050565b600081519050919050565b600082825260208201905092915050565b60005b8381101561031b578082015181840152602081019050610300565b60008484015250505050565b6000601f19601f8301169050919050565b6000610343826102e1565b61034d81856102ec565b935061035d8185602086016102fd565b61036681610327565b840191505092915050565b600061037d8383610338565b905092915050565b6000602082019050919050565b600061039d826102b5565b6103a781856102c0565b9350836020820285016103b9856102d1565b8060005b858110156103f557848403895281516103d68582610371565b94506103e183610385565b925060208a019950506001810190506103bd565b50829750879550505050505092915050565b600060208201905081810360008301526104218184610392565b905092915050565b6000604051905090565b600080fd5b600080fd5b600080fd5b600080fd5b7f4e487b7100000000000000000000000000000000000000000000000000000000600052604160045260246000fd5b61047f82610327565b810181811067ffffffffffffffff8211171561049e5761049d610447565b5b80604052505050565b60006104b1610429565b90506104bd8282610476565b919050565b600067ffffffffffffffff8211156104dd576104dc610447565b5b6104e682610327565b9050602081019050919050565b82818337600083830152505050565b6000610515610510846104c2565b6104a7565b90508281526020810184848401111561053157610530610442565b5b61053c8482856104f3565b509392505050565b600082601f8301126105595761055861043d565b5b8135610569848260208601610502565b91505092915050565b60006020828403121561058857610587610433565b5b600082013567ffffffffffffffff8111156105a6576105a5610438565b5b6105b284828501610544565b91505092915050565b600082825260208201905092915050565b60006105d7826102e1565b6105e181856105bb565b93506105f18185602086016102fd565b6105fa81610327565b840191505092915050565b6000602082019050818103600083015261061f81846105cc565b905092915050565b7f4e487b7100000000000000000000000000000000000000000000000000000000600052602260045260246000fd5b6000600282049050600182168061066e57607f821691505b60208210810361068157610680610627565b5b50919050565b60008190508160005260206000209050919050565b60006020601f8301049050919050565b600082821b905092915050565b6000600883026106e97fffffffffffffffffffffffffffffffffffffffffffffffffffffffffffffffff826106ac565b6106f386836106ac565b95508019841693508086168417925050509392505050565b6000819050919050565b6000819050919050565b600061073a6107356107308461070b565b610715565b61070b565b9050919050565b6000819050919050565b6107548361071f565b61076861076082610741565b8484546106b9565b825550505050565b600090565b61077d610770565b61078881848461074b565b505050565b5b818110156107ac576107a1600082610775565b60018101905061078e565b5050565b601f8211156107f1576107c281610687565b6107cb8461069c565b810160208510156107da578190505b6107ee6107e68561069c565b83018261078d565b50505b505050565b600082821c905092915050565b6000610814600019846008026107f6565b1980831691505092915050565b600061082d8383610803565b9150826002028217905092915050565b610846826102e1565b67ffffffffffffffff81111561085f5761085e610447565b5b6108698254610656565b6108748282856107b0565b600060209050601f8311600181146108a75760008415610895578287015190505b61089f8582610821565b865550610907565b601f1984166108b586610687565b60005b828110156108dd578489015182556001820191506020850194506020810190506108b8565b868310156108fa57848901516108f6601f891682610803565b8355505b6001600288020188555050505b50505050505056fea264697066735822122090d9c74af142b50df5739e815bf84385684c658d9777481aa6c39fe757841da164736f6c63430008110033",
  "linkReferences": {},
  "deployedLinkReferences": {}
}