{
  "_format": "hh-sol-artifact-1",
  "contractName": "contractStorage",
  "sourceName": "contracts/contractStorage.sol",
  "abi": [
    {
      "inputs": [
        {
          "internalType": "string",
          "name": "insurance",
          "type": "string"
        }
      ],
      "name": "addInsurance",
      "outputs": [],
      "stateMutability": "nonpayable",
      "type": "function"
    },
    {
      "inputs": [],
      "name": "getInsurances",
      "outputs": [
        {
          "internalType": "string[]",
          "name": "",
          "type": "string[]"
        }
      ],
      "stateMutability": "view",
      "type": "function"
    }
  ],
  "bytecode": "0x608060405234801561001057600080fd5b50610822806100206000396000f3fe608060405234801561001057600080fd5b50600436106100365760003560e01c80630e709ca71461003b57806344648ddb14610059575b600080fd5b610043610075565b6040516100509190610350565b60405180910390f35b610073600480360381019061006e91906104bb565b61018a565b005b60606000803373ffffffffffffffffffffffffffffffffffffffff1673ffffffffffffffffffffffffffffffffffffffff168152602001908152602001600020805480602002602001604051908101604052809291908181526020016000905b828210156101815783829060005260206000200180546100f490610533565b80601f016020809104026020016040519081016040528092919081815260200182805461012090610533565b801561016d5780601f106101425761010080835404028352916020019161016d565b820191906000526020600020905b81548152906001019060200180831161015057829003601f168201915b5050505050815260200190600101906100d5565b50505050905090565b6000803373ffffffffffffffffffffffffffffffffffffffff1673ffffffffffffffffffffffffffffffffffffffff168152602001908152602001600020819080600181540180825580915050600190039060005260206000200160009091909190915090816101fa919061071a565b5050565b600081519050919050565b600082825260208201905092915050565b6000819050602082019050919050565b600081519050919050565b600082825260208201905092915050565b60005b83811015610264578082015181840152602081019050610249565b60008484015250505050565b6000601f19601f8301169050919050565b600061028c8261022a565b6102968185610235565b93506102a6818560208601610246565b6102af81610270565b840191505092915050565b60006102c68383610281565b905092915050565b6000602082019050919050565b60006102e6826101fe565b6102f08185610209565b9350836020820285016103028561021a565b8060005b8581101561033e578484038952815161031f85826102ba565b945061032a836102ce565b925060208a01995050600181019050610306565b50829750879550505050505092915050565b6000602082019050818103600083015261036a81846102db565b905092915050565b6000604051905090565b600080fd5b600080fd5b600080fd5b600080fd5b7f4e487b7100000000000000000000000000000000000000000000000000000000600052604160045260246000fd5b6103c882610270565b810181811067ffffffffffffffff821117156103e7576103e6610390565b5b80604052505050565b60006103fa610372565b905061040682826103bf565b919050565b600067ffffffffffffffff82111561042657610425610390565b5b61042f82610270565b9050602081019050919050565b82818337600083830152505050565b600061045e6104598461040b565b6103f0565b90508281526020810184848401111561047a5761047961038b565b5b61048584828561043c565b509392505050565b600082601f8301126104a2576104a1610386565b5b81356104b284826020860161044b565b91505092915050565b6000602082840312156104d1576104d061037c565b5b600082013567ffffffffffffffff8111156104ef576104ee610381565b5b6104fb8482850161048d565b91505092915050565b7f4e487b7100000000000000000000000000000000000000000000000000000000600052602260045260246000fd5b6000600282049050600182168061054b57607f821691505b60208210810361055e5761055d610504565b5b50919050565b60008190508160005260206000209050919050565b60006020601f8301049050919050565b600082821b905092915050565b6000600883026105c67fffffffffffffffffffffffffffffffffffffffffffffffffffffffffffffffff82610589565b6105d08683610589565b95508019841693508086168417925050509392505050565b6000819050919050565b6000819050919050565b600061061761061261060d846105e8565b6105f2565b6105e8565b9050919050565b6000819050919050565b610631836105fc565b61064561063d8261061e565b848454610596565b825550505050565b600090565b61065a61064d565b610665818484610628565b505050565b5b818110156106895761067e600082610652565b60018101905061066b565b5050565b601f8211156106ce5761069f81610564565b6106a884610579565b810160208510156106b7578190505b6106cb6106c385610579565b83018261066a565b50505b505050565b600082821c905092915050565b60006106f1600019846008026106d3565b1980831691505092915050565b600061070a83836106e0565b9150826002028217905092915050565b6107238261022a565b67ffffffffffffffff81111561073c5761073b610390565b5b6107468254610533565b61075182828561068d565b600060209050601f8311600181146107845760008415610772578287015190505b61077c85826106fe565b8655506107e4565b601f19841661079286610564565b60005b828110156107ba57848901518255600182019150602085019450602081019050610795565b868310156107d757848901516107d3601f8916826106e0565b8355505b6001600288020188555050505b50505050505056fea26469706673582212203f101780f3c939d1aca7e4582a1b47a39959a422e4f6c75f7d9e28d8b929c8c464736f6c63430008110033",
  "linkReferences": {},
  "deployedLinkReferences": {}
}